:020000040800F2
:1000000078050020A9010008451800088D16000891
:1000100041180008910200083D1900080000000086
:100020000000000000000000000000004D18000863
:100030009502000800000000491800085118000847
:10004000C3010008C3010008C3010008C301000880
:10005000C3010008C3010008C3010008C301000870
:10006000C3010008C3010008C3010008C301000860
:10007000C3010008C3010008C3010008C301000850
:10008000C3010008C3010008C3010008000000000C
:10009000000000000000000000000000C301000894
:1000A000C3010008C3010008C3010008C301000820
:1000B000C3010008C3010008C3010008C301000810
:1000C000C3010008C3010008C3010008C301000800
:1000D000C3010008C3010008C301000800000000BC
:1000E000C3010008C3010008C301000800000000AC
:1000F000000000000000000000000000C301000834
:1001000000000000C3010008C3010008C30100088B
:1001100000000000000000000000000000000000DF
:10012000C3010008C3010008C3010008C30100089F
:10013000C3010008000000000000000000000000F3
:10014000000000000000000000000000C3010008E3
:10015000C3010008C3010008C3010008C30100086F
:10016000C3010008C30100080000000000000000F7
:10017000000000000000000000000000000000007F
:1001800000000000C30100080000000000000000A3
:10019000C3010008DFF80CD000F068F80048004701
:1001A00021320008780500200648804706480047AD
:1001B000FEE7FEE7FEE7FEE7FEE7FEE7FEE7FEE717
:1001C000FEE7FEE729190008950100082DE9F05F18
:1001D0000546002092469B468846064681464024B6
:1001E0001BE0284641464746224600F02FF853467A
:1001F0005A46C01A914110D311461846224600F0C3
:1002000016F82D1A67EB01084F46224601200021FF
:1002100000F00DF817EB00094E41201EA4F1010477
:10022000DFDC484631462A464346BDE8F09F202A97
:1002300004DB203A00FA02F1002070479140C2F13D
:10024000200320FA03F3194390407047202A04DB6F
:10025000203A21FA02F00021704721FA02F3D0403F
:10026000C2F120029140084319467047064C074DE1
:1002700006E0E06840F0010394E807009847103476
:10028000AC42F6D3FFF78AFF7834000898340008B0
:10029000FEE7000070470000EFF3108072B600BF69
:1002A000FEE70000B0B5044600F0F4F8054640F261
:1002B0000000C2F200000078611C18BF044400BFB7
:1002C00000F0E8F8401BA042FAD3B0BD2DE9F04F92
:1002D00082B000F13E4241F2000502F1FF77C4F224
:1002E000020507224FEAB726A84208BF0422042EBF
:1002F00038BF4FEAB7224FF0010E002600274FF01B
:100300000008009208E000BF023708F10108202F22
:1003100006F1040600F0B4800C680EFA08F914EA3D
:10032000090FF1D0D1F804A00AF0030BABF10104DE
:10033000012C19D80322846802FA07FECA6824EA4D
:100340000E04BA40224382604268CAF3001522EAD2
:10035000090205FA08F54FEA480C6FEA0E044FF05F
:10036000010E2A4342600BE00322BA40D443BBF1A2
:10037000030FBC4604D1BC464FF0030B24E000BF82
:10038000C2688D68224005FA0CF52A43BBF1020FC2
:10039000C26019D16FF0030202EA5802024406F06B
:1003A0001C030F25D2F820E005FA03FA0D692EEAA6
:1003B0000A0E05FA03F343EA0E031362D1F804A010
:1003C0004FF0010E0AF0030B02680BFA0CF3224007
:1003D0001A435FEACA03026096D5002243F644033B
:1003E0000192C4F202031A6843F6004C42F48042C0
:1003F0001A601A68C4F2010C02F480420192019A58
:1004000028F003024FF6084A6244CFF6FF7A52F80A
:100410000A3006F00C050F24AC40A343009C04FAFC
:1004200005F52B4342F80A30DCF800204B6842EA1D
:100430000905DC0358BF22EA0905CCF80050DCF8B6
:1004400004209C0342EA090558BF22EA0905CCF8BA
:100450000450DCF80820DC0242EA090543F60C44AB
:1004600058BF22EA0905CCF80850C4F201042268FA
:100470009B0242EA090558BF22EA0905256043E7C5
:1004800002B0BDE8F08F0000002A08BF09048161B6
:100490007047000040F27410C2F20000006870471C
:1004A00070B5B8B3044690F83D0028B9002084F830
:1004B0003C00204600F0B0F8242084F83D0020687D
:1004C000016821F001010160016841F4004101600F
:1004D000016821F40041016000F0DCFA48F280413B
:1004E000C0F21E0140F60013D4F804E088424FF039
:1004F0000001C0F23D0348F2A16C4FF0000238BF8A
:1005000001219842C0F2010C38BF0122E64538BFF4
:100510000A460AB1012070BD4DF68361C4F21B3159
:10052000A0FB01122168950C4B684FF4967623F0DE
:100530003F0343EA9243754344F6D3564B60C1F2FE
:1005400062060B6AA5FB0656B50923F03F03E64594
:1005500038BF950C6A1C1A430A62CA6948F2A06641
:100560004CF6FF73C0F20106B64522EA03020BD82F
:1005700001384FEA4E03B0FBF3F001306FF31F3048
:10058000042898BF04201EE0A368013863B1192332
:100590000EFB03F3B0FBF3F001306FF31F3078B1C3
:1005A00000F5804008E000BF0EEB4E03B0FBF3F017
:1005B00001306FF31F3028B100F5004003E000BFA9
:1005C000012000E001201043C8610868D4E9072336
:1005D00020F0C000104318430860886848F2FF32DA
:1005E00004F10C0690434CCE18431043A569886073
:1005F000C86820F0FF0030432843C860086840F016
:100600000100086000202021206484F83D10206350
:1006100084F83E0070BD0000B0B586B0016845F2B8
:100620000040C4F20000814202D006B0B0BD00BF5D
:10063000002543F630040195C4F20204216800F558
:10064000D83041F002012160216801F002010191DE
:100650000199C021019112210291012103910321ED
:1006600004910421059101A9FFF730FE009520694E
:1006700040F400102061206900F400100090009800
:1006800006B0B0BD40F2000040F27411C2F20000AA
:10069000C2F2000100780A68104408607047000048
:1006A00080B543F60040C4F20200016841F40071D5
:1006B0000160016841F480610160016841F480716A
:1006C0000160032000F074F8002000F005F800F04D
:1006D00027F8002080BD000070B540F20006C2F28D
:1006E000000640F2A0013278C2F200014FF47A73A2
:1006F0000968B3FBF2F20446B1FBF2F1084600F0E0
:100700002BFE0F2C4FF0010508D838B94FF0FF3001
:1007100021460022002500F01FF87460284670BDB5
:1007200082B0002043F640010190C4F202014A6801
:1007300042F480424A604A6802F480420192019A7F
:100740000090086840F080500860086800F0805011
:100750000090009802B0704710B54EF60C5CCEF2D7
:10076000000CDCF80030C3F3022E8EF00704042CDA
:1007700028BF0424BEF103034FF0FF3E0EFA04F439
:1007800038BF0023A14399400EFA03F39A4300F0C7
:100790000F03043B1143634409010C3300F1604231
:1007A000B0F1FF3FC8BF02F56443197010BD0000EF
:1007B0004EF60C51CEF200010A684FF6FF031A40C4
:1007C00060F30A2242F0806040F0FD7008607047DC
:1007D000F0B581B00446006810F0050F2DD06827F1
:1007E000C4F2472743F670060020C4F202063860C0
:1007F000FFF750FE054600BF56F8700C000105D506
:10080000FFF748FE401B0228F6D93DE0D4E901106D
:10081000000740EA8110706101203860FFF73AFE5E
:10082000054600BF56F8700C000105D4FFF732FEF4
:10083000401B0228F6D927E02068810758D543F6E7
:1008400070060020C4F20206009056F8300C47F201
:10085000000740F0805046F8300C56F8300CC4F2D7
:10086000000700F0805000900098386840F48070D5
:100870003860FFF70FFE05463868C00508D4FFF75B
:1008800009FE401B0228F7D9032001B0F0BD00BFCC
:10089000306810F4407013D0E16801F44071884270
:1008A0000ED0306840F64061C4F24721012220F4A6
:1008B00040700A6000220A6030603068C00727D1AB
:1008C0002068E16856F8682C4FF6FF4701F4407342
:1008D00022F4F812C0F6FF770F40B3F5407F08BF4F
:1008E0003A4346F8682C32686FF31F311143316088
:1008F000000703D4002001B0F0BD00BF207C40F60B
:100900004061C4F24721C1F8A003002001B0F0BD4E
:10091000FFF7C0FD054641F2883700BF3068800709
:10092000CED4FFF7B7FD401BB8424FF00300F5D916
:10093000ECE700002DE9F041002800F08B8043F641
:100940000808C4F202080446D8F8F8030D4600F07F
:100950000700884207D288F8F853D8F8F80300F067
:100960000700A84276D12068810717D5410705D531
:10097000D8F8001041F4E051C8F80010010705D57F
:10098000D8F8001041F46041C8F80010D8F8001001
:10099000A26821F0F0011143C8F80010C0073FD150
:1009A000D8F8F80300F00700A84207D988F8F853F0
:1009B000D8F8F80300F00700A8424BD1206841079F
:1009C00007D5D8F80010E26821F4E0511143C8F8C7
:1009D0000010000708D5D8F80000216920F4604015
:1009E00040EAC100C8F8000000F068F8D8F800102C
:1009F00043F25E42C1F30311C0F60002515C40F2C3
:100A0000A00220FA01F140F20400C2F200000068E6
:100A1000C2F200021160FFF75FFE0020BDE8F08126
:100A20006068811E022907D258F8081C89015CBF42
:100A30000120BDE8F08111E0012807D158F8081C19
:100A400089035CBF0120BDE8F08107E058F8081C6D
:100A5000890703D40120BDE8F08100BFD8F8001059
:100A600021F003010843C8F80000FFF713FD064614
:100A700041F28837D8F80000616800F00C00B0EB54
:100A8000810F8DD0FFF706FD801BB842F2D90320FD
:100A9000BDE8F08140F2A00043F60801C2F2000078
:100AA000C4F202010068096843F26E42C1F3822178
:100AB000C0F60002515CC8407047000010B543F614
:100AC0000404C4F20204606800F00C0008280BD093
:100AD000042819BF42F20040C0F2F40047F640007B
:100AE000C0F27D1010BD00BF206821682368490254
:100AF00047F64001C0F27D1100F03F02C3F38810B9
:100B00005CBF42F20041C0F2F401A1FB00010023EE
:100B1000FFF75CFB21680222C1F3014102EB4101B6
:100B2000B0FBF1F010BD00002DE9F04182B00028CB
:100B30006AD00446007843F60006C007C4F20206F5
:100B40000BD0B06800F00C00042840F0A1803068A1
:100B5000800302D56068002856D0207880071AD517
:100B6000B06810F00C0F09D0B06800F00C00082835
:100B700040F0A8807068400200F1A48030688007CF
:100B800002D5E06801283FD13068216920F0F800E3
:100B900040EAC10030602078000739D4207840074F
:100BA0004ED4A5695DB3B06800F00C00082840F091
:100BB000BD80012D28D07068E16900F480028A426E
:100BC00022D1216A00F03F028A421DD147F6C0714E
:100BD000626A0140B1EB821F16D1A26A0023CFF6F0
:100BE000FF7303EBC23200F440316FF30F02914206
:100BF0000AD1E16A00F07060B0EB016F04D100200F
:100C000002B0BDE8F08100BF012002B0BDE8F08174
:100C10006069002840F20000C4F2472076D001212C
:100C2000C0F8801EFFF736FC054600BF706F8007D6
:100C3000B4D4FFF72FFC401B0228F7D9DDE000BF3A
:100C4000306C10F080580AD100200190306C40F0D8
:100C500080503064306C00F080500190019847F271
:100C60000007C4F200073868C00541D4386840F472
:100C700080703860FFF70EFC054600BF3868C0057D
:100C800036D4FFF707FC401B0228F7D9B5E000BFB8
:100C9000B06800F00C00082803D1706840023FF5EE
:100CA00056AF6068B0F5803F07D0B0F5A02F40F098
:100CB0008D80306840F480203060306840F48030AF
:100CC00030608DE0E068002852D00020C4F2472058
:100CD00001210160FFF7DEFB054600BF3068800799
:100CE0003FF552AFFFF7D6FB401B0228F6D984E050
:100CF000A068012805D005284ED1306F40F00400CF
:100D00003067306F40F0010030674FE00021C0F8DD
:100D1000801EFFF7BFFB0546706F80077FF53EAF73
:100D2000FFF7B8FB401B0228F6D966E00027C4F2A3
:100D3000472700203866FFF7ADFB022D05460BD193
:100D4000306880015ED5FFF7A5FB401B02284FF0FD
:100D50000300F5D954E700BF306880017FF54FAF3D
:100D6000FFF798FB401B02284FF00300F4D947E738
:100D70000020C4F2472000210160FFF78BFB0546ED
:100D8000306880077FF507AFFFF784FB401B022820
:100D90004FF00300F4D933E7316F002821F001014F
:100DA0003167316F21F0040131674DD0FFF772FBDD
:100DB000054641F2883700BF306F800756D4FFF7F1
:100DC00069FB401BB842F7D917E000BF3168002823
:100DD00021F480313160316821F4802131604FD0BD
:100DE000FFF758FB054600BF306880033FF5B5AEFE
:100DF000FFF750FB401B6428F6D9032002B0BDE882
:100E0000F08100BF04F11C052FCD08430021CFF66F
:100E1000FF7140EA821001EBC3316FF30F0140EA2A
:100E200005600843706001203866FFF733FB044615
:100E3000306880013FF5E3AEFFF72CFB001B022872
:100E40004FF00300F4D9DBE6FFF724FB054641F23F
:100E5000883700BF306F800708D5FFF71BFB401BAA
:100E6000B8424FF00300F5D9CAE600BFB8F1000F51
:100E70007FF497AE306C20F08050306491E600BF74
:100E8000FFF708FB054600BF306880037FF565AEBD
:100E9000FFF700FB401B64284FF00300F4D9AFE6D6
:100EA00010B5006840684FEA1043C0F3042E00F00C
:100EB0003F0CC0F34234CB7081F801E081F802C0EE
:100EC0000C700AB1002010BDC0F3035404EB84047D
:100ED00003F00F0303EB4403020ACB704FEA1E1327
:100EE00043EA830302F00F0202EB43024A704FEA27
:100EF0001C1242EA820200F00F0000EB42008870F0
:100F0000002010BD10B500684024836A4B6003695F
:100F10006FF3DF338B600068C0F30543C0F3062E28
:100F200000F07F0C04EA10440B7081F801E081F8B6
:100F300002C0CC7012B1002010BD00BF020C1B0912
:100F400043EA830302F00F0202EB4302040A0A7031
:100F50004FEA1E1202EB820204F00F0303EB42027F
:100F60004A704FEA1C1202EB820200F00F0000EB05
:100F700042008870002010BD002804BF0120704787
:100F8000B0B50446407F20B900202077204600F00D
:100F900061F8022060772168CA20486253204862C5
:100FA000C868400612D44FF0FF30C860FFF772FAED
:100FB000054600BF2168C868400607D4FFF76AFAF3
:100FC000401BB0F57A7FF5D92EE000BF88684FF658
:100FD000BF72CFF68F7210408860D4E9010CD4E95B
:100FE0000335626928438D681043284388600B618C
:100FF000086940EA0C400861C86820F08000C860B9
:101000008868800618D4C86820F0A000C860FFF780
:1010100041FA05462168C86880060DD4FFF73AFA00
:10102000401BB0F57A7FF5D9216801200422FF2307
:101030004B626277B0BD00BF086C20F4802008646A
:10104000A0690A6C1043086400200122FF234B6250
:101050006277B0BD006842F60001C4F20001884228
:1010600018BF704740F63C60C4F247200121016080
:10107000704700002DE9F0470446007F01284FF03B
:10108000020008BFBDE8F0870123237760775AB1DB
:101090004A7808788B78C978120242EA01411944EB
:1010A00041EA40364EE000BF48784CF6CD4CC206CF
:1010B00042BF00F0EF000A304870CB78CCF6CC4C41
:1010C000A3F10A0E5FFA8EF2A2FB0C28A0F10A0A25
:1010D0008A785FFA8AF7A7FB0C79A2F10A07FDB2BA
:1010E000A5FB0C564FEAD80505EB85054FF0010C22
:1010F000AEEB450E0CEBD805092B88BF4EEA051365
:101100004FEAD90505EB850591F800E00CEBD90114
:10111000AAEB4505092888BF45EA0110F108DBB2B2
:1011200001EB81011B04A7EB41010CEBD607092A57
:1011300088BF41EA0712C0B2D1B243EA4E3242EA56
:10114000002046182168CA20486253204862C868B7
:10115000400611D44FF0FF30C860FFF79BF90546F9
:101160002168C868400607D4FFF794F9401BB0F522
:101170007A7FF5D91CE000BF26F0C0004860C8683F
:1011800020F08000C8608868800615D4C86820F008
:10119000A000C860FFF77EF9054600BF2168C86857
:1011A000800609D4FFF776F9401BB0F57A7FF5D9B0
:1011B00021680120042201E000200122FF234B626C
:1011C000002162772177BDE8F08700002DE9F04F1C
:1011D00081B00446007F01284FF0020000F0B98082
:1011E0000D460121217760772168886800F0400072
:1011F00032B1002854D14FF0000885F8038052E046
:10120000002806BF4FF0000C85F803C095F803C016
:101210002A784CF6CD4EA2F10A086E785FFA88F370
:10122000CCF6CC4EA3FB0E39A6F10A0AAB785FFAD6
:101230008AF0A0FB0E0BA3F10A00C7B2A7FB0E7E3B
:101240004FEAD90707EB8707A8EB47074FF00108DC
:1012500008EBD909092A88BF47EA09124FEADB07D8
:1012600007EB8707AAEB470908EBDB07092E88BFC6
:1012700049EA07164FEADE0707EB8707A0EB4700AE
:1012800008EBDE07092B88BF40EA071342EA0C008F
:10129000C0B2F6B200045FFA83F840EA062709E01C
:1012A000E8784FEA00486A782878AB78120242EA78
:1012B0000040C718CA20486253204862C8684006E8
:1012C00012D44FF0FF30C860FFF7E4F8064600BFC5
:1012D0002168C868400607D4FFF7DCF8801BB0F52A
:1012E0007A7FF5D92AE000BF47F67F7247EA080007
:1012F000C0F27F0210400860886820F48020886077
:10130000D5E903028B68104318438860C86820F051
:101310008000C8608868800614D4C86820F0A000E7
:10132000C860FFF7B7F805462168C868800609D489
:10133000FFF7B0F8401BB0F57A7FF5D9216801209E
:10134000042201E000200122FF234B62002162778A
:10135000217701B0BDE8F08F411E0020B0EB116F86
:101360001CBF012070474EF21002CEF20002516005
:101370004EF62351CEF20001F0230B70072190604E
:1013800011607047002804BF0120704710B5044663
:1013900090F83D0028B9002084F83C00204600F079
:1013A0008FF8022084F83D00206840F2FF73026845
:1013B000C4F2000340F2000C9842C4F2010C1DDD9F
:1013C00040F60001C4F20001884220D060451ED0E2
:1013D00040F60041C4F20001884218D04FF6FF7178
:1013E000C4F2000188421CDC984225DCB0F1804F39
:1013F0003AD040F20041C4F2000133E0B0F1804F36
:1014000005D040F20041C4F200018842E6D1A16853
:1014100022F070020A434FF6FF71C4F200018842C5
:10142000E2DD44F2FF31C4F20101884210DC604584
:101430001AD044F2000113E040F60001C4F20001AA
:10144000884211D040F60041C4F200010AE000BF1A
:1014500044F60001C4F20101884205D044F2004183
:10146000C4F20101884203D1216922F440720A4387
:10147000A36922F08001D4F804E0E26819436045D2
:101480000160C262C0F828E002D16169CCF8301076
:1014900001214161002084F8461084F83E1084F850
:1014A0003F1084F8401084F8411084F8421084F80A
:1014B000431084F8441084F8451084F83D1010BDA2
:1014C00081B0006844F20001C4F20101884201D0F9
:1014D00001B070470020009043F64400C4F20200BF
:1014E000016841F480310160006800F480300090B0
:1014F000009801B07047000080B590F83C20012AA8
:101500004FF0020200F0BF8080F83D20D0F800C00C
:101510004FF67772DCF8083023EA0202CCF8082094
:101520000B683F2B1CDD5F2B20DD602B50D0B3F50B
:10153000005F6DD0702B40F0A080D1E901E3C96855
:10154000DCF8082043EA0E0322F47F4243EA01213B
:101550001143CCF80810DCF8081041F077018AE05C
:101560001F2B29DC63B3102B2AD086E0402B63D0DD
:10157000502B40F08280D1F804E0C968DCF82030BC
:10158000DCF8202022F00102CCF82020DCF8182022
:1015900022F0F00242EA011123F00A0242EA0E02AE
:1015A000CCF81810CCF82020DCF8081041F05701D6
:1015B00021F020015FE000BF202B01D0302B5CD157
:1015C000DCF8081021F07001194341F0070152E0E6
:1015D000D1F804E0C968DCF8203023F01003CCF81F
:1015E0002030DCF81830DCF8202023F4704322F09F
:1015F000A00243EA013142EA0E12CCF81810CCF8EE
:101600002020DCF8081041F0670121F0100132E0E1
:10161000D1E901E3C968DCF8082043EA0E0322F4AB
:101620007F4243EA01211143CCF80810DCF808108E
:1016300041F480411FE000BFD1F804E0C968DCF844
:101640002030DCF8202022F00102CCF82020DCF849
:10165000182022F0F00242EA011123F00A0242EAC5
:101660000E02CCF81810CCF82020DCF8081041F05D
:10167000470121F03001CCF808100121002280F848
:101680003D1080F83C20104680BD0000FEE70000C1
:1016900070B586B0002543F6300005950095C4F27C
:1016A00002000168002441F0040101600168C4F2F5
:1016B000020401F0040100910099009501680022E4
:1016C00041F0800101600168F02601F08001009185
:1016D00000990095016841F001010160016801F085
:1016E0000101009100990095016841F0020101603B
:1016F0000068F02100F00200009000982046FEF7FC
:10170000C3FE0120CDE9020501A9204601960495FA
:10171000FEF7DCFD06B070BD80B540F2B80045F2C2
:101720000041C2F20000C4F2000148F2A0620023AE
:101730004FF4804CC0F2010280E80E00C0E9033C87
:10174000C0E90533C0E90733FEF7AAFE002808BF49
:1017500080BDBDE88040FEF79FBD000010B586B09B
:1017600040F20C1042F600010024C2F20000C4F264
:1017700000017F22C0E9001400F10801CDE9024414
:10178000CDE90044FF231CC1C0E90544FFF7F4FB89
:10179000002818BFFEF780FD42F60A00ADF80400ED
:1017A00040F20C10C2F2000001A901228DF806409F
:1017B000CDE90444FFF70AFD002818BFFEF76CFDD1
:1017C00040F20360C1F20350009040F20C10C2F2EC
:1017D000000069460122FFF74DFC002818BFFEF704
:1017E0005BFD06B010BD000080B584B040F22C1047
:1017F00044F200020021C2F20000C4F201025323AD
:101800000391CDE90111C0E90021C0E90213016192
:1018100080218161FFF7B6FD002818BFFEF73CFD6F
:101820004FF48050009040F22C10C2F20000694644
:10183000FFF762FE002818BFFEF72EFD04B080BD42
:10184000FEE70000FEE70000704700007047000060
:10185000FEF718BFB0B598B0002443F640001094CE
:10186000CDE90E44CDE90A44CDE90844CDE906446A
:10187000CDE90444CDE902440194C4F202000168B8
:10188000022541F080510160006800F08050019015
:10189000019847F200000194C4F20000016865F36A
:1018A0008F310160006800F44040019001980920E8
:1018B0000C904FF480300D900120CDE911054FF4CC
:1018C0008000139019201490A820CDE9150504205C
:1018D00017900CA8FFF728F920B1EFF3108072B62B
:1018E000FEE700BF0F20CDE907054FF48050CDE99A
:1018F0000A0407A802210994FFF71CF820B1EFF3AE
:10190000108072B6FEE700BF022002904FF4007014
:10191000059002A8FEF75CFF20B1EFF3108072B6CD
:10192000FEE700BF18B0B0BD4EF68850CEF2000002
:10193000016841F47001016070470000FEE700009B
:101940002DE9F04F89B040F20C14C2F2000403A953
:1019500020460022FFF7D6FA08A920460022FFF70A
:101960009FFA9DF80D0040F2A80B411F0429C2F216
:10197000000B31D840F20800C2F2000001789BF859
:10198000086042789BF8095083789BF80A403143FD
:1019900090F803C09BF80B708BF8081045EA020121
:1019A0008BF8091044EA030102799BF80C308BF89C
:1019B0000A1047EA0C018BF80B1043EA0201427946
:1019C0009BF80D308BF80C1043EA020182799BF8EA
:1019D0000E30C079A1E000BFA0F10A01042931D87E
:1019E00040F20800C2F20000017A9BF80860427AD7
:1019F0009BF80950837A9BF80A40314390F80BC05A
:101A00009BF80B708BF8081045EA02018BF809105F
:101A100044EA0301027B9BF80C308BF80A1047EA7A
:101A20000C018BF80B1043EA0201427B9BF80D304E
:101A30008BF80C1043EA0201827B9BF80E30C07BCE
:101A40006BE000BFA0F10F01042931D840F208007B
:101A5000C2F20000017C9BF80860427C9BF80950B0
:101A6000837C9BF80A40314390F813C09BF80B70BD
:101A70008BF8081045EA02018BF8091044EA0301CB
:101A8000027D9BF80C308BF80A1047EA0C018BF8AA
:101A90000B1043EA0201427D9BF80D308BF80C10CD
:101AA00043EA0201827D9BF80E30C07D35E000BF25
:101AB000A0F11401042900F25D8340F20800C2F293
:101AC0000000017E9BF80860427E9BF80950837EEF
:101AD0009BF80A40314390F81BC09BF80B708BF8C1
:101AE000081045EA02018BF8091044EA0301027F5D
:101AF0009BF80C308BF80A1047EA0C018BF80B109E
:101B000043EA0201427F9BF80D308BF80C1043EA48
:101B10000201827F9BF80E30C07F8BF80D1043EAE4
:101B200002019BF80F208BF80E10DBF80010104319
:101B30008BF80F00481C40F2080AC2F2000ACBF8EA
:101B400000009AF828009AF82B509BF808309BF870
:101B50000B109AF829209BF8097003430D439AF85B
:101B60002C009BF80C10174341EA00029AF82D0054
:101B70009BF80D10DBF800C041EA00099AF82E002E
:101B80009BF80E109AF82A6041EA00089AF82F0094
:101B90009BF80F109BF80A4041EA000E0CF101007F
:101BA000CBF800009DF80C00264317288BF808306E
:101BB0008BF809708BF80A608BF80B508BF80C20AF
:101BC0008BF80D908BF80E808BF80FE000F2A1825D
:101BD000DFE810F018004E008400BA00F000260183
:101BE0005C0192016A02C801FE01340218004E0035
:101BF0008400BA00F00026015C0192016A02C8016B
:101C0000FE0134029AF890009AF891109AF89240E6
:101C1000184301948BF8080041EA07009AF89340B2
:101C20008BF809000198029430438BF80A0002985F
:101C30009AF8941028438BF80B0041EA02009AF8B6
:101C400095108BF80C0041EA09009AF896108BF871
:101C50000D0041EA08009AF897108BF80E0041EA4F
:101C60000E008BF80F000CF10200CBF8000050E2E0
:101C70009AF838009AF839109AF83A4018430194C3
:101C80008BF8080041EA07009AF83B408BF80900FE
:101C90000198029430438BF80A0002989AF83C109D
:101CA00028438BF80B0041EA02009AF83D108BF8AC
:101CB0000C0041EA09009AF83E108BF80D0041EA49
:101CC00008009AF83F108BF80E0041EA0E008BF8DE
:101CD0000F000CF10200CBF800001AE29AF8400065
:101CE0009AF841109AF84240184301948BF8080082
:101CF00041EA07009AF843408BF8090001980294E2
:101D000030438BF80A0002989AF8441028438BF865
:101D10000B0041EA02009AF845108BF80C0041EAEA
:101D200009009AF846108BF80D0041EA08009AF86D
:101D300047108BF80E0041EA0E008BF80F000CF1F3
:101D40000200CBF80000E4E19AF848009AF8491044
:101D50009AF84A40184301948BF8080041EA0700BA
:101D60009AF84B408BF809000198029430438BF8A5
:101D70000A0002989AF84C1028438BF80B0041EAAD
:101D800002009AF84D108BF80C0041EA09009AF80D
:101D90004E108BF80D0041EA08009AF84F108BF8AE
:101DA0000E0041EA0E008BF80F000CF10200CBF898
:101DB0000000AEE19AF850009AF851109AF852409B
:101DC000184301948BF8080041EA07009AF8534041
:101DD0008BF809000198029430438BF80A000298AE
:101DE0009AF8541028438BF80B0041EA02009AF845
:101DF00055108BF80C0041EA09009AF856108BF840
:101E00000D0041EA08009AF857108BF80E0041EADD
:101E10000E008BF80F000CF10200CBF8000078E107
:101E20009AF858009AF859109AF85A4018430194B1
:101E30008BF8080041EA07009AF85B408BF809002C
:101E40000198029430438BF80A0002989AF85C10CB
:101E500028438BF80B0041EA02009AF85D108BF8DA
:101E60000C0041EA09009AF85E108BF80D0041EA77
:101E700008009AF85F108BF80E0041EA0E008BF80C
:101E80000F000CF10200CBF8000042E19AF860006C
:101E90009AF861109AF86240184301948BF8080090
:101EA00041EA07009AF863408BF809000198029410
:101EB00030438BF80A0002989AF8641028438BF894
:101EC0000B0041EA02009AF865108BF80C0041EA19
:101ED00009009AF866108BF80D0041EA08009AF89C
:101EE00067108BF80E0041EA0E008BF80F000CF122
:101EF0000200CBF800000CE19AF868009AF869102B
:101F00009AF86A40184301948BF8080041EA0700E8
:101F10009AF86B408BF809000198029430438BF8D3
:101F20000A0002989AF86C1028438BF80B0041EADB
:101F300002009AF86D108BF80C0041EA09009AF83B
:101F40006E108BF80D0041EA08009AF86F108BF8BC
:101F50000E0041EA0E008BF80F000CF10200CBF8E6
:101F60000000D6E09AF878009AF879109AF87A404A
:101F7000184301948BF8080041EA07009AF87B4067
:101F80008BF809000198029430438BF80A000298FC
:101F90009AF87C1028438BF80B0041EA02009AF86B
:101FA0007D108BF80C0041EA09009AF87E108BF83E
:101FB0000D0041EA08009AF87F108BF80E0041EA04
:101FC0000E008BF80F000CF10200CBF80000A0E02F
:101FD0009AF880009AF881109AF882401843019488
:101FE0008BF8080041EA07009AF883408BF8090053
:101FF0000198029430438BF80A0002989AF88410F2
:1020000028438BF80B0041EA02009AF885108BF800
:102010000C0041EA09009AF886108BF80D0041EA9D
:1020200008009AF887108BF80E0041EA0E008BF832
:102030000F000CF10200CBF800006AE09AF888006B
:102040009AF889109AF88A40184301948BF808008E
:1020500041EA07009AF88B408BF809000198029436
:1020600030438BF80A0002989AF88C1028438BF8BA
:102070000B0041EA02009AF88D108BF80C0041EA3F
:1020800009009AF88E108BF80D0041EA08009AF8C2
:102090008F108BF80E0041EA0E008BF80F000CF148
:1020A0000200CBF8000034E09AF870009AF8711042
:1020B0009AF87240184301948BF8080041EA07002F
:1020C0009AF873408BF809000198029430438BF81A
:1020D0000A0002989AF8741028438BF80B0041EA22
:1020E00002009AF875108BF80C0041EA09009AF882
:1020F00076108BF80D0041EA08009AF877108BF8FB
:102100000E0041EA0E008BF80F000CF10200CBF834
:1021100000000220FEF7C6F801F094F89BF80810C2
:10212000012001F075F99BF80910022001F070F907
:102130009BF80A10032001F06BF99BF80B100420A8
:1021400001F066F99BF80C10052001F061F99BF88D
:102150000D10062001F05CF99BF80E10072001F02D
:1021600057F99BF80F10082001F052F909B0BDE8AB
:10217000F08F00BFA0F11901042955D840F20800E2
:10218000C2F20000477E9BF809509BF80810037EBE
:1021900045EA070EC57E9BF80B4090F800C0867E8E
:1021A00019439BF80A70427F9BF80D3044EA0508FA
:1021B000057F9BF80C40374343EA0209C67F9BF832
:1021C0000F2041EA0C012C43837F9BF80E508BF8C3
:1021D00008104178324386782B43C57841EA0E01D6
:1021E00090F804C08BF8091046EA07018BF80A1032
:1021F00045EA080147798BF80B104CEA04018BF88B
:102200000C1047EA09018779C079DBF800A0104378
:102210008BF80D1047EA03018BF80F000AF102005A
:102220008BF80E1087E400BFA0F11E01042937D8F7
:1022300040F20800C2F2000090F820109BF80860FD
:1022400090F821209BF8095090F822309BF80A4022
:10225000314390F823C09BF80B708BF8081045EAC7
:1022600002018BF8091044EA030190F824209BF83E
:102270000C308BF80A1047EA0C018BF80B1043EA7C
:10228000020190F825209BF80D308BF80C1043EAE2
:10229000020190F826209BF80E3090F827003CE4CD
:1022A000A0F12301042955D840F20800C2F2000031
:1022B000477E9BF809509BF80810037E45EA070EFD
:1022C000C57E9BF80B4090F800C0867E19439BF8B2
:1022D0000A70427F9BF80D3044EA0508057F9BF8A1
:1022E0000C40374343EA0209C67F9BF80F2041EABE
:1022F0000C012C43837F9BF80E508BF8081041781B
:10230000324386782B43C57841EA0E0190F804C029
:102310008BF8091046EA07018BF80A1045EA080114
:1023200047798BF80B104CEA0401DBF800A08BF81E
:102330000C1047EA09018779C0798BF80D1047EA3C
:10234000030110430AF1020E8BF80E108BF80F00F8
:10235000B7E000BFA0F12801042931D840F20800FD
:10236000C2F20000017E9BF80860427E9BF8095093
:10237000837E9BF80A40314390F81BC09BF80B709A
:102380008BF8081045EA02018BF8091044EA0301B2
:10239000027F9BF80C308BF80A1047EA0C018BF88F
:1023A0000B1043EA0201427F9BF80D308BF80C10B2
:1023B00043EA0201827F9BF80E30C07F72E000BFCB
:1023C000A0F12D01042931D840F20800C2F200002A
:1023D000017C9BF80860427C9BF80950837C9BF849
:1023E0000A40314390F813C09BF80B708BF808102B
:1023F00045EA02018BF8091044EA0301027D9BF8CB
:102400000C308BF80A1047EA0C018BF80B1043EAEA
:102410000201427D9BF80D308BF80C1043EA02015B
:10242000827D9BF80E30C07D3CE000BFA0F1320100
:10243000042900F22B8340F20800C2F2000090F859
:1024400080109BF8086090F881209BF8095090F864
:1024500082309BF80A40314390F883C09BF80B70A0
:102460008BF8081045EA02018BF8091044EA0301D1
:1024700090F884209BF80C308BF80A1047EA0C0186
:102480008BF80B1043EA020190F885209BF80D3081
:102490008BF80C1043EA020190F886209BF80E306E
:1024A00090F887008BF80D1043EA02019BF80F208B
:1024B0008BF80E10DBF8001010438BF80F0001F1C1
:1024C000010E9BF80A009BF808309BF809900290D7
:1024D0009BF80B809BF80CC09BF80D209BF80E001E
:1024E0009BF80F50CBF800E040F20801C2F2000167
:1024F00091F8304091F8317091F832602343029C9A
:1025000047EA090744EA060991F8346091F833A0D4
:102510004CEA060C91F8356048EA0A0442EA0608DB
:1025200091F836208BF80830024391F837008BF889
:10253000097045EA00069DF80C000EF10105172808
:102540008BF80A908BF80B408BF80CC08BF80D8041
:102550008BF80E208BF80F60CBF800503FF6D9AD0A
:10256000CDE9016EDFE810F018004C008000B400E7
:10257000E8001C01500184015C02BA01F00126024E
:1025800018004C008000B400E8001C0150018401D8
:102590005C02BA01F001260291F8380091F8395036
:1025A00091F83A60184391F83BA08BF8080045EA8F
:1025B00007008BF8090046EA090091F83C308BF8D7
:1025C0000A004AEA04008BF80B0043EA0C0091F879
:1025D0003D308BF80C0043EA080091F83E308BF850
:1025E0000D0043EA020091F83F108BF80E000198AD
:1025F00008438BF80F0002980230CBF8000088E502
:1026000091F8400091F8415091F84260184391F8D8
:1026100043A08BF8080045EA07008BF8090046EA5A
:10262000090091F844308BF80A004AEA04008BF85C
:102630000B0043EA0C0091F845308BF80C0043EA9C
:10264000080091F846308BF80D0043EA020091F83B
:1026500047108BF80E00019808438BF80F00029882
:102660000230CBF8000054E591F8480091F8495049
:1026700091F84A60184391F84BA08BF8080045EA9E
:1026800007008BF8090046EA090091F84C308BF8F6
:102690000A004AEA04008BF80B0043EA0C0091F8A8
:1026A0004D308BF80C0043EA080091F84E308BF85F
:1026B0000D0043EA020091F84F108BF80E000198CC
:1026C00008438BF80F0002980230CBF8000020E599
:1026D00091F8500091F8515091F85260184391F8D8
:1026E00053A08BF8080045EA07008BF8090046EA7A
:1026F000090091F854308BF80A004AEA04008BF87C
:102700000B0043EA0C0091F855308BF80C0043EABB
:10271000080091F856308BF80D0043EA020091F85A
:1027200057108BF80E00019808438BF80F000298A1
:102730000230CBF80000ECE491F8580091F85950C1
:1027400091F85A60184391F85BA08BF8080045EAAD
:1027500007008BF8090046EA090091F85C308BF815
:102760000A004AEA04008BF80B0043EA0C0091F8D7
:102770005D308BF80C0043EA080091F85E308BF86E
:102780000D0043EA020091F85F108BF80E000198EB
:1027900008438BF80F0002980230CBF80000B8E431
:1027A00091F8600091F8615091F86260184391F8D7
:1027B00063A08BF8080045EA07008BF8090046EA99
:1027C000090091F864308BF80A004AEA04008BF89B
:1027D0000B0043EA0C0091F865308BF80C0043EADB
:1027E000080091F866308BF80D0043EA020091F87A
:1027F00067108BF80E00019808438BF80F000298C1
:102800000230CBF8000084E491F8680091F8695038
:1028100091F86A60184391F86BA08BF8080045EABC
:1028200007008BF8090046EA090091F86C308BF834
:102830000A004AEA04008BF80B0043EA0C0091F806
:102840006D308BF80C0043EA080091F86E308BF87D
:102850000D0043EA020091F86F108BF80E0001980A
:1028600008438BF80F0002980230CBF8000050E4C8
:1028700091F8700091F8715091F87260184391F8D6
:1028800073A08BF8080045EA07008BF8090046EAB8
:10289000090091F874308BF80A004AEA04008BF8BA
:1028A0000B0043EA0C0091F875308BF80C0043EAFA
:1028B000080091F876308BF80D0043EA020091F899
:1028C00077108BF80E00019808438BF80F000298E0
:1028D0000230CBF80000FFF71CBC00BF91F880006D
:1028E00091F8815091F88260184391F883A08BF899
:1028F000080045EA07008BF8090046EA090091F84C
:1029000084308BF80A004AEA04008BF80B0043EA93
:102910000C0091F885308BF80C0043EA080091F820
:1029200086308BF80D0043EA020091F887108BF88F
:102930000E00019808438BF80F0002980230CBF884
:102940000000FFF7E6BB00BF91F8880091F88950BE
:1029500091F88A60184391F88BA08BF8080045EA3B
:1029600007008BF8090046EA090091F88C308BF8D3
:102970000A004AEA04008BF80B0043EA0C0091F8C5
:102980008D308BF80C0043EA080091F88E308BF8FC
:102990000D0043EA020091F88F108BF80E000198A9
:1029A00008438BF80F0002980230CBF80000FFF7C5
:1029B000B0BB00BF91F8900091F8915091F89260EF
:1029C000184391F893A08BF8080045EA07008BF8AC
:1029D000090046EA090091F894308BF80A004AEAA7
:1029E00004008BF80B0043EA0C0091F895308BF84B
:1029F0000C0043EA080091F896308BF80D0043EA8A
:102A0000020091F897108BF80E00019808438BF89C
:102A10000F0002980230CBF80000FFF77ABB00BF2E
:102A200091F8780091F8795091F87A60184391F80C
:102A30007BA08BF8080045EA07008BF8090046EAFE
:102A4000090091F87C308BF80A004AEA04008BF800
:102A50000B0043EA0C0091F87D308BF80C0043EA40
:102A6000080091F87E308BF80D0043EA020091F8DF
:102A70007F108BF80E00019808438BF80F00029826
:102A80000230CBF80000FFF744BB00BF37282FD33C
:102A900040F20801C2F200019BF808000A784F7862
:102AA0008E7840EA02039BF809009BF80A2040EA6E
:102AB000070942EA0600CD7802909BF80B000A79DC
:102AC0009BF80C6040EA050846EA020C48799BF83E
:102AD0000D208D799BF80E40024344EA0500C97928
:102AE0009BF80F50DBF800400D4304F1010EFBE4AE
:102AF0009DF80C0017283FF60CABDFE810F019002A
:102B00006300AD00F70041018B01D5011F024703AF
:102B10006902B302FD0219006300AD00F700410134
:102B20008B01D5011F0247036902B302FD0200BFFA
:102B300040F20800C2F2000090F890109BF8086084
:102B400090F891209BF8095090F892309BF80A4039
:102B5000314390F893C09BF80B708BF8081045EA4E
:102B600002018BF8091044EA030190F894209BF8C5
:102B70000C308BF80A1047EA0C018BF80B1043EA73
:102B8000020190F895209BF80D308BF80C1043EA69
:102B9000020190F896209BF80E308BF80D1043EA56
:102BA000020190F897009BF80F208BF80E10DBF8CD
:102BB000001010438BF80F00481CCBF80000FFF703
:102BC000A8BA00BF40F20800C2F2000090F8381026
:102BD0009BF8086090F839209BF8095090F83A303B
:102BE0009BF80A40314390F83BC09BF80B708BF880
:102BF000081045EA02018BF8091044EA030190F835
:102C00003C209BF80C308BF80A1047EA0C018BF83B
:102C10000B1043EA020190F83D209BF80D308BF831
:102C20000C1043EA020190F83E209BF80E308BF81E
:102C30000D1043EA020190F83F009BF80F208BF83B
:102C40000E10DBF8001010438BF80F00481CCBF877
:102C50000000FFF75EBA00BF40F20800C2F20000B9
:102C600090F840109BF8086090F841209BF80950BC
:102C700090F842309BF80A40314390F843C09BF8EB
:102C80000B708BF8081045EA02018BF8091044EA32
:102C9000030190F844209BF80C308BF80A1047EAA7
:102CA0000C018BF80B1043EA020190F845209BF8C9
:102CB0000D308BF80C1043EA020190F846209BF887
:102CC0000E308BF80D1043EA020190F847009BF894
:102CD0000F208BF80E10DBF8001010438BF80F005C
:102CE000481CCBF80000FFF714BA00BF40F2080000
:102CF000C2F2000090F848109BF8086090F8492054
:102D00009BF8095090F84A309BF80A40314390F8FC
:102D10004BC09BF80B708BF8081045EA02018BF84A
:102D2000091044EA030190F84C209BF80C308BF812
:102D30000A1047EA0C018BF80B1043EA020190F8E5
:102D40004D209BF80D308BF80C1043EA020190F8EF
:102D50004E209BF80E308BF80D1043EA020190F8DC
:102D60004F009BF80F208BF80E10DBF8001010437B
:102D70008BF80F00481CCBF80000FFF7CAB900BF62
:102D800040F20800C2F2000090F850109BF8086072
:102D900090F851209BF8095090F852309BF80A4067
:102DA000314390F853C09BF80B708BF8081045EA3C
:102DB00002018BF8091044EA030190F854209BF8B3
:102DC0000C308BF80A1047EA0C018BF80B1043EA21
:102DD000020190F855209BF80D308BF80C1043EA57
:102DE000020190F856209BF80E308BF80D1043EA44
:102DF000020190F857009BF80F208BF80E10DBF8BB
:102E0000001010438BF80F00481CCBF80000FFF7B0
:102E100080B900BF40F20800C2F2000090F85810DC
:102E20009BF8086090F859209BF8095090F85A30A8
:102E30009BF80A40314390F85BC09BF80B708BF80D
:102E4000081045EA02018BF8091044EA030190F8E2
:102E50005C209BF80C308BF80A1047EA0C018BF8C9
:102E60000B1043EA020190F85D209BF80D308BF8BF
:102E70000C1043EA020190F85E209BF80E308BF8AC
:102E80000D1043EA020190F85F009BF80F208BF8C9
:102E90000E10DBF8001010438BF80F00481CCBF825
:102EA0000000FFF736B900BF40F20800C2F2000090
:102EB00090F860109BF8086090F861209BF809502A
:102EC00090F862309BF80A40314390F863C09BF859
:102ED0000B708BF8081045EA02018BF8091044EAE0
:102EE000030190F864209BF80C308BF80A1047EA35
:102EF0000C018BF80B1043EA020190F865209BF857
:102F00000D308BF80C1043EA020190F866209BF814
:102F10000E308BF80D1043EA020190F867009BF821
:102F20000F208BF80E10DBF8001010438BF80F0009
:102F3000481CCBF80000FFF7ECB800BF40F20800D7
:102F4000C2F2000090F868109BF8086090F86920C1
:102F50009BF8095090F86A309BF80A40314390F88A
:102F60006BC09BF80B708BF8081045EA02018BF8D8
:102F7000091044EA030190F86C209BF80C308BF8A0
:102F80000A1047EA0C018BF80B1043EA020190F893
:102F90006D209BF80D308BF80C1043EA020190F87D
:102FA0006E209BF80E308BF80D1043EA020190F86A
:102FB0006F009BF80F208BF80E10DBF80010104309
:102FC0008BF80F00481CCBF80000FFF7A2B800BF39
:102FD00040F20800C2F2000090F878109BF80860F8
:102FE00090F879209BF8095090F87A309BF80A40C5
:102FF000314390F87BC09BF80B708BF8081045EAC2
:1030000002018BF8091044EA030190F87C209BF838
:103010000C308BF80A1047EA0C018BF80B1043EACE
:10302000020190F87D209BF80D308BF80C1043EADC
:10303000020190F87E209BF80E308BF80D1043EAC9
:10304000020190F87F009BF80F208BF80E10DBF840
:10305000001010438BF80F00481CCBF80000FFF75E
:1030600058B800BF40F20800C2F2000090F880108B
:103070009BF8086090F881209BF8095090F8823006
:103080009BF80A40314390F883C09BF80B708BF893
:10309000081045EA02018BF8091044EA030190F890
:1030A00084209BF80C308BF80A1047EA0C018BF84F
:1030B0000B1043EA020190F885209BF80D308BF845
:1030C0000C1043EA020190F886209BF80E308BF832
:1030D0000D1043EA020190F887009BF80F208BF84F
:1030E0000E10DBF8001010438BF80F00481CCBF8D3
:1030F0000000FFF70EB800BF40F20800C2F2000067
:1031000090F888109BF8086090F889209BF8095087
:1031100090F88A309BF80A40314390F88BC09BF8B6
:103120000B708BF8081045EA02018BF8091044EA8D
:10313000030190F88C209BF80C308BF80A1047EABA
:103140000C018BF80B1043EA020190F88D209BF8DC
:103150000D308BF80C1043EA020190F88E209BF89A
:103160000E308BF80D1043EA020190F88F009BF8A7
:103170000F208BF80E10DBF8001010438BF80F00B7
:10318000481CCBF80000FEF7C4BF00BF40F20800A7
:10319000C2F2000090F870109BF8086090F871205F
:1031A0009BF8095090F872309BF80A40314390F830
:1031B00073C09BF80B708BF8081045EA02018BF87E
:1031C000091044EA030190F874209BF80C308BF846
:1031D0000A1047EA0C018BF80B1043EA020190F841
:1031E00075209BF80D308BF80C1043EA020190F823
:1031F00076209BF80E308BF80D1043EA020190F810
:1032000077009BF80F208BF80E10DBF800101043AE
:103210008BF80F00481CCBF80000FEF77ABF0000C7
:10322000FDF73EFAFEF716FBFEF732FAFEF774FAE8
:10323000FEF7DAFAFEF792FAFEF782FB00F058F892
:10324000FAE7000010B50024C4F202042046402131
:103250000022FDF719F9092000F052F8002000F0D3
:103260004FF8204640210122FDF70EF9204640216B
:103270000022FDF709F90A2000F042F8012000F0D1
:103280003FF8204640210122FDF7FEF8204640216C
:103290000022FDF7F9F80B2000F032F8072000F0CB
:1032A0002FF8204640210122FDF7EEF8204640216C
:1032B0000022FDF7E9F80C2000F022F8012000F0D0
:1032C0001FF8204640210122FDF7DEF8204640216C
:1032D0000022FDF7D9F80F2000F012F8002000F0CE
:1032E0000FF8204640210122BDE81040FDF7CCB880
:1032F00040F2A800C2F200000021C0E902117047AC
:1033000070B50024C4F202040546204620210022A4
:10331000FDF7BAF805F08002204680218026FDF7EF
:10332000B3F8204620210122FDF7AEF820462021E7
:103330000022FDF7A9F806EA450220468021FDF7A4
:10334000A3F8204620210122FDF79EF820462021E7
:103350000022FDF799F806EA850220468021FDF754
:1033600093F8204620210122FDF78EF820462021E7
:103370000022FDF789F806EAC50220468021FDF704
:1033800083F8204620210122FDF77EF820462021E7
:103390000022FDF779F806EA051220468021FDF7A4
:1033A00073F8204620210122FDF76EF820462021E7
:1033B0000022FDF769F806EA451220468021FDF754
:1033C00063F8204620210122FDF75EF820462021E7
:1033D0000022FDF759F806EA851220468021FDF704
:1033E00053F8204620210122ED01FDF74DF820463B
:1033F00020210022FDF748F8EAB220468021FDF79F
:1034000043F8204620210122BDE87040FDF73CB87A
:1034100070B50026C4F202060C460546304640212F
:103420000022FDF731F82846FFF76AFF2046FFF734
:1034300067FF304640210122BDE87040FDF724B807
:1034400002E008C8121F08C1002AFAD1704770476D
:10345000002001E001C1121F002AFBD170470000CB
:103460000000000000000102030406070809000034
:10347000000001020304000098340008000000204E
:10348000A80000004034000840350008A8000020D3
:10349000D0040000503400080100000010000000BB
:1034A0000404040400000000000100010100000009
:1034B00003020202020202000001010101010100F7
:1034C00000000000040404040008080808000000CC
:1034D000000000000808000000800000000080805C
:1034E00040C000000000000000000020202020203C
:1034F000808080800000000010101010000000008C
:10350000202020000000000020000000404040403B
:10351000000000101010101000000000808080805B
:1035200000000000000000700000404040404040AB
:1035300040404040004040000024F40000000000F3
:040000050800019559
:00000001FF
